{
  "contractName": "FreeIdeas",
  "abi": [
    {
      "inputs": [],
      "stateMutability": "nonpayable",
      "type": "constructor"
    },
    {
      "inputs": [],
      "name": "creatorOriginAddress",
      "outputs": [
        {
          "internalType": "address",
          "name": "",
          "type": "address"
        }
      ],
      "stateMutability": "view",
      "type": "function"
    },
    {
      "inputs": [],
      "name": "ideaCounter",
      "outputs": [
        {
          "internalType": "uint256",
          "name": "",
          "type": "uint256"
        }
      ],
      "stateMutability": "view",
      "type": "function"
    },
    {
      "inputs": [
        {
          "internalType": "address",
          "name": "",
          "type": "address"
        },
        {
          "internalType": "uint256",
          "name": "",
          "type": "uint256"
        }
      ],
      "name": "ideas",
      "outputs": [
        {
          "internalType": "uint256",
          "name": "id",
          "type": "uint256"
        },
        {
          "internalType": "address",
          "name": "ideaAddress",
          "type": "address"
        },
        {
          "internalType": "string",
          "name": "problemStatement",
          "type": "string"
        },
        {
          "internalType": "string",
          "name": "solutionPraposal",
          "type": "string"
        },
        {
          "internalType": "address",
          "name": "author",
          "type": "address"
        },
        {
          "internalType": "string",
          "name": "authorAlias",
          "type": "string"
        },
        {
          "internalType": "string",
          "name": "attachments",
          "type": "string"
        }
      ],
      "stateMutability": "view",
      "type": "function"
    },
    {
      "inputs": [],
      "name": "theCreatorOfIdeaUniverse",
      "outputs": [
        {
          "internalType": "string",
          "name": "",
          "type": "string"
        }
      ],
      "stateMutability": "view",
      "type": "function"
    },
    {
      "inputs": [
        {
          "internalType": "address",
          "name": "",
          "type": "address"
        },
        {
          "internalType": "uint256",
          "name": "",
          "type": "uint256"
        }
      ],
      "name": "users",
      "outputs": [
        {
          "internalType": "address",
          "name": "user",
          "type": "address"
        }
      ],
      "stateMutability": "view",
      "type": "function"
    },
    {
      "inputs": [
        {
          "internalType": "string",
          "name": "problemStatement",
          "type": "string"
        },
        {
          "internalType": "string",
          "name": "solutionPraposal",
          "type": "string"
        },
        {
          "internalType": "string",
          "name": "authorAlias",
          "type": "string"
        },
        {
          "internalType": "string",
          "name": "attachments",
          "type": "string"
        }
      ],
      "name": "mintIdea",
      "outputs": [],
      "stateMutability": "nonpayable",
      "type": "function"
    },
    {
      "inputs": [
        {
          "internalType": "address",
          "name": "owner",
          "type": "address"
        }
      ],
      "name": "listIdeas",
      "outputs": [
        {
          "components": [
            {
              "internalType": "uint256",
              "name": "id",
              "type": "uint256"
            },
            {
              "internalType": "address",
              "name": "ideaAddress",
              "type": "address"
            },
            {
              "internalType": "string",
              "name": "problemStatement",
              "type": "string"
            },
            {
              "internalType": "string",
              "name": "solutionPraposal",
              "type": "string"
            },
            {
              "internalType": "address",
              "name": "author",
              "type": "address"
            },
            {
              "internalType": "string",
              "name": "authorAlias",
              "type": "string"
            },
            {
              "internalType": "string",
              "name": "attachments",
              "type": "string"
            },
            {
              "internalType": "address[]",
              "name": "contributers",
              "type": "address[]"
            },
            {
              "internalType": "address[]",
              "name": "critisers",
              "type": "address[]"
            },
            {
              "internalType": "address[]",
              "name": "owners",
              "type": "address[]"
            },
            {
              "internalType": "address[]",
              "name": "versions",
              "type": "address[]"
            }
          ],
          "internalType": "struct FreeIdeas.Idea[]",
          "name": "",
          "type": "tuple[]"
        }
      ],
      "stateMutability": "view",
      "type": "function"
    },
    {
      "inputs": [
        {
          "internalType": "address",
          "name": "ideaAddress",
          "type": "address"
        }
      ],
      "name": "listUsers",
      "outputs": [
        {
          "components": [
            {
              "internalType": "address",
              "name": "user",
              "type": "address"
            },
            {
              "internalType": "address[]",
              "name": "author",
              "type": "address[]"
            },
            {
              "internalType": "address[]",
              "name": "contributer",
              "type": "address[]"
            },
            {
              "internalType": "address[]",
              "name": "critiser",
              "type": "address[]"
            },
            {
              "internalType": "address[]",
              "name": "owner",
              "type": "address[]"
            }
          ],
          "internalType": "struct FreeIdeas.Users[]",
          "name": "",
          "type": "tuple[]"
        }
      ],
      "stateMutability": "view",
      "type": "function"
    }
  ],
  "bytecode": "0x60806040523480156200001157600080fd5b5033600160006101000a81548173ffffffffffffffffffffffffffffffffffffffff021916908373ffffffffffffffffffffffffffffffffffffffff16021790555060016004819055506200010b6040518060800160405280604e8152602001620029fd604e91396040518060800160405280604e8152602001620029fd604e91396040518060400160405280600781526020017f6d68726a313337000000000000000000000000000000000000000000000000008152506040518060400160405280601081526020017f6e6f206174746163686d656e746e7473000000000000000000000000000000008152506200011160201b60201c565b6200099c565b600160046000828254620001269190620008ab565b92505081905550600060608060608033846000815181106200014d576200014c62000908565b5b602002602001019073ffffffffffffffffffffffffffffffffffffffff16908173ffffffffffffffffffffffffffffffffffffffff168152505033826000815181106200019f576200019e62000908565b5b602002602001019073ffffffffffffffffffffffffffffffffffffffff16908173ffffffffffffffffffffffffffffffffffffffff16815250508481600081518110620001f157620001f062000908565b5b602002602001019073ffffffffffffffffffffffffffffffffffffffff16908173ffffffffffffffffffffffffffffffffffffffff1681525050600060405180610160016040528060045481526020018773ffffffffffffffffffffffffffffffffffffffff1681526020018b81526020018a81526020013373ffffffffffffffffffffffffffffffffffffffff168152602001898152602001888152602001868152602001858152602001848152602001838152509050600260003373ffffffffffffffffffffffffffffffffffffffff1673ffffffffffffffffffffffffffffffffffffffff1681526020019081526020016000208190806001815401808255809150506001900390600052602060002090600b02016000909190919091506000820151816000015560208201518160010160006101000a81548173ffffffffffffffffffffffffffffffffffffffff021916908373ffffffffffffffffffffffffffffffffffffffff16021790555060408201518160020190805190602001906200038192919062000733565b506060820151816003019080519060200190620003a092919062000733565b5060808201518160040160006101000a81548173ffffffffffffffffffffffffffffffffffffffff021916908373ffffffffffffffffffffffffffffffffffffffff16021790555060a08201518160050190805190602001906200040692919062000733565b5060c08201518160060190805190602001906200042592919062000733565b5060e082015181600701908051906020019062000444929190620007c4565b5061010082015181600801908051906020019062000464929190620007c4565b5061012082015181600901908051906020019062000484929190620007c4565b5061014082015181600a019080519060200190620004a4929190620007c4565b505050606080606080846020015184600081518110620004c957620004c862000908565b5b602002602001019073ffffffffffffffffffffffffffffffffffffffff16908173ffffffffffffffffffffffffffffffffffffffff16815250508460200151816000815181106200051f576200051e62000908565b5b602002602001019073ffffffffffffffffffffffffffffffffffffffff16908173ffffffffffffffffffffffffffffffffffffffff168152505084602001518360008151811062000575576200057462000908565b5b602002602001019073ffffffffffffffffffffffffffffffffffffffff16908173ffffffffffffffffffffffffffffffffffffffff168152505060006040518060a001604052803373ffffffffffffffffffffffffffffffffffffffff16815260200186815260200185815260200184815260200183815250905060036000876020015173ffffffffffffffffffffffffffffffffffffffff1673ffffffffffffffffffffffffffffffffffffffff16815260200190815260200160002081908060018154018082558091505060019003906000526020600020906005020160009091909190915060008201518160000160006101000a81548173ffffffffffffffffffffffffffffffffffffffff021916908373ffffffffffffffffffffffffffffffffffffffff1602179055506020820151816001019080519060200190620006c2929190620007c4565b506040820151816002019080519060200190620006e1929190620007c4565b50606082015181600301908051906020019062000700929190620007c4565b5060808201518160040190805190602001906200071f929190620007c4565b505050505050505050505050505050505050565b828054620007419062000966565b90600052602060002090601f016020900481019282620007655760008555620007b1565b82601f106200078057805160ff1916838001178555620007b1565b82800160010185558215620007b1579182015b82811115620007b057825182559160200191906001019062000793565b5b509050620007c0919062000853565b5090565b82805482825590600052602060002090810192821562000840579160200282015b828111156200083f5782518260006101000a81548173ffffffffffffffffffffffffffffffffffffffff021916908373ffffffffffffffffffffffffffffffffffffffff16021790555091602001919060010190620007e5565b5b5090506200084f919062000853565b5090565b5b808211156200086e57600081600090555060010162000854565b5090565b6000819050919050565b7f4e487b7100000000000000000000000000000000000000000000000000000000600052601160045260246000fd5b6000620008b88262000872565b9150620008c58362000872565b9250827fffffffffffffffffffffffffffffffffffffffffffffffffffffffffffffffff03821115620008fd57620008fc6200087c565b5b828201905092915050565b7f4e487b7100000000000000000000000000000000000000000000000000000000600052603260045260246000fd5b7f4e487b7100000000000000000000000000000000000000000000000000000000600052602260045260246000fd5b600060028204905060018216806200097f57607f821691505b6020821081141562000996576200099562000937565b5b50919050565b61205180620009ac6000396000f3fe608060405234801561001057600080fd5b50600436106100885760003560e01c80637cb40d6c1161005b5780637cb40d6c1461015357806383f14cc31461016f578063aef52d231461018d578063df7deda1146101ab57610088565b80633eb238991461008d57806354a02f9e146100c35780635bc9bba6146100f35780637060b26214610123575b600080fd5b6100a760048036038101906100a29190611669565b6101c9565b6040516100ba9796959493929190611760565b60405180910390f35b6100dd60048036038101906100d89190611669565b610488565b6040516100ea91906117eb565b60405180910390f35b61010d60048036038101906101089190611806565b6104e3565b60405161011a9190611a3e565b60405180910390f35b61013d60048036038101906101389190611806565b61080f565b60405161014a9190611c9b565b60405180910390f35b61016d60048036038101906101689190611df2565b610de4565b005b6101776113da565b6040516101849190611ec9565b60405180910390f35b610195611468565b6040516101a291906117eb565b60405180910390f35b6101b361148e565b6040516101c09190611eeb565b60405180910390f35b600260205281600052604060002081815481106101e557600080fd5b90600052602060002090600b0201600091509150508060000154908060010160009054906101000a900473ffffffffffffffffffffffffffffffffffffffff169080600201805461023590611f35565b80601f016020809104026020016040519081016040528092919081815260200182805461026190611f35565b80156102ae5780601f10610283576101008083540402835291602001916102ae565b820191906000526020600020905b81548152906001019060200180831161029157829003601f168201915b5050505050908060030180546102c390611f35565b80601f01602080910402602001604051908101604052809291908181526020018280546102ef90611f35565b801561033c5780601f106103115761010080835404028352916020019161033c565b820191906000526020600020905b81548152906001019060200180831161031f57829003601f168201915b5050505050908060040160009054906101000a900473ffffffffffffffffffffffffffffffffffffffff169080600501805461037790611f35565b80601f01602080910402602001604051908101604052809291908181526020018280546103a390611f35565b80156103f05780601f106103c5576101008083540402835291602001916103f0565b820191906000526020600020905b8154815290600101906020018083116103d357829003601f168201915b50505050509080600601805461040590611f35565b80601f016020809104026020016040519081016040528092919081815260200182805461043190611f35565b801561047e5780601f106104535761010080835404028352916020019161047e565b820191906000526020600020905b81548152906001019060200180831161046157829003601f168201915b5050505050905087565b600360205281600052604060002081815481106104a457600080fd5b9060005260206000209060050201600091509150508060000160009054906101000a900473ffffffffffffffffffffffffffffffffffffffff16905081565b6060600360008373ffffffffffffffffffffffffffffffffffffffff1673ffffffffffffffffffffffffffffffffffffffff168152602001908152602001600020805480602002602001604051908101604052809291908181526020016000905b8282101561080457838290600052602060002090600502016040518060a00160405290816000820160009054906101000a900473ffffffffffffffffffffffffffffffffffffffff1673ffffffffffffffffffffffffffffffffffffffff1673ffffffffffffffffffffffffffffffffffffffff1681526020016001820180548060200260200160405190810160405280929190818152602001828054801561064257602002820191906000526020600020905b8160009054906101000a900473ffffffffffffffffffffffffffffffffffffffff1673ffffffffffffffffffffffffffffffffffffffff16815260200190600101908083116105f8575b50505050508152602001600282018054806020026020016040519081016040528092919081815260200182805480156106d057602002820191906000526020600020905b8160009054906101000a900473ffffffffffffffffffffffffffffffffffffffff1673ffffffffffffffffffffffffffffffffffffffff1681526020019060010190808311610686575b505050505081526020016003820180548060200260200160405190810160405280929190818152602001828054801561075e57602002820191906000526020600020905b8160009054906101000a900473ffffffffffffffffffffffffffffffffffffffff1673ffffffffffffffffffffffffffffffffffffffff1681526020019060010190808311610714575b50505050508152602001600482018054806020026020016040519081016040528092919081815260200182805480156107ec57602002820191906000526020600020905b8160009054906101000a900473ffffffffffffffffffffffffffffffffffffffff1673ffffffffffffffffffffffffffffffffffffffff16815260200190600101908083116107a2575b50505050508152505081526020019060010190610544565b505050509050919050565b6060600260008373ffffffffffffffffffffffffffffffffffffffff1673ffffffffffffffffffffffffffffffffffffffff168152602001908152602001600020805480602002602001604051908101604052809291908181526020016000905b82821015610dd957838290600052602060002090600b020160405180610160016040529081600082015481526020016001820160009054906101000a900473ffffffffffffffffffffffffffffffffffffffff1673ffffffffffffffffffffffffffffffffffffffff1673ffffffffffffffffffffffffffffffffffffffff16815260200160028201805461090490611f35565b80601f016020809104026020016040519081016040528092919081815260200182805461093090611f35565b801561097d5780601f106109525761010080835404028352916020019161097d565b820191906000526020600020905b81548152906001019060200180831161096057829003601f168201915b5050505050815260200160038201805461099690611f35565b80601f01602080910402602001604051908101604052809291908181526020018280546109c290611f35565b8015610a0f5780601f106109e457610100808354040283529160200191610a0f565b820191906000526020600020905b8154815290600101906020018083116109f257829003601f168201915b505050505081526020016004820160009054906101000a900473ffffffffffffffffffffffffffffffffffffffff1673ffffffffffffffffffffffffffffffffffffffff1673ffffffffffffffffffffffffffffffffffffffff168152602001600582018054610a7e90611f35565b80601f0160208091040260200160405190810160405280929190818152602001828054610aaa90611f35565b8015610af75780601f10610acc57610100808354040283529160200191610af7565b820191906000526020600020905b815481529060010190602001808311610ada57829003601f168201915b50505050508152602001600682018054610b1090611f35565b80601f0160208091040260200160405190810160405280929190818152602001828054610b3c90611f35565b8015610b895780601f10610b5e57610100808354040283529160200191610b89565b820191906000526020600020905b815481529060010190602001808311610b6c57829003601f168201915b5050505050815260200160078201805480602002602001604051908101604052809291908181526020018280548015610c1757602002820191906000526020600020905b8160009054906101000a900473ffffffffffffffffffffffffffffffffffffffff1673ffffffffffffffffffffffffffffffffffffffff1681526020019060010190808311610bcd575b5050505050815260200160088201805480602002602001604051908101604052809291908181526020018280548015610ca557602002820191906000526020600020905b8160009054906101000a900473ffffffffffffffffffffffffffffffffffffffff1673ffffffffffffffffffffffffffffffffffffffff1681526020019060010190808311610c5b575b5050505050815260200160098201805480602002602001604051908101604052809291908181526020018280548015610d3357602002820191906000526020600020905b8160009054906101000a900473ffffffffffffffffffffffffffffffffffffffff1673ffffffffffffffffffffffffffffffffffffffff1681526020019060010190808311610ce9575b50505050508152602001600a8201805480602002602001604051908101604052809291908181526020018280548015610dc157602002820191906000526020600020905b8160009054906101000a900473ffffffffffffffffffffffffffffffffffffffff1673ffffffffffffffffffffffffffffffffffffffff1681526020019060010190808311610d77575b50505050508152505081526020019060010190610870565b505050509050919050565b600160046000828254610df79190611f96565b9250508190555060006060806060803384600081518110610e1b57610e1a611fec565b5b602002602001019073ffffffffffffffffffffffffffffffffffffffff16908173ffffffffffffffffffffffffffffffffffffffff16815250503382600081518110610e6a57610e69611fec565b5b602002602001019073ffffffffffffffffffffffffffffffffffffffff16908173ffffffffffffffffffffffffffffffffffffffff16815250508481600081518110610eb957610eb8611fec565b5b602002602001019073ffffffffffffffffffffffffffffffffffffffff16908173ffffffffffffffffffffffffffffffffffffffff1681525050600060405180610160016040528060045481526020018773ffffffffffffffffffffffffffffffffffffffff1681526020018b81526020018a81526020013373ffffffffffffffffffffffffffffffffffffffff168152602001898152602001888152602001868152602001858152602001848152602001838152509050600260003373ffffffffffffffffffffffffffffffffffffffff1673ffffffffffffffffffffffffffffffffffffffff1681526020019081526020016000208190806001815401808255809150506001900390600052602060002090600b02016000909190919091506000820151816000015560208201518160010160006101000a81548173ffffffffffffffffffffffffffffffffffffffff021916908373ffffffffffffffffffffffffffffffffffffffff1602179055506040820151816002019080519060200190611047929190611494565b506060820151816003019080519060200190611064929190611494565b5060808201518160040160006101000a81548173ffffffffffffffffffffffffffffffffffffffff021916908373ffffffffffffffffffffffffffffffffffffffff16021790555060a08201518160050190805190602001906110c8929190611494565b5060c08201518160060190805190602001906110e5929190611494565b5060e082015181600701908051906020019061110292919061151a565b5061010082015181600801908051906020019061112092919061151a565b5061012082015181600901908051906020019061113e92919061151a565b5061014082015181600a01908051906020019061115c92919061151a565b50505060608060608084602001518460008151811061117e5761117d611fec565b5b602002602001019073ffffffffffffffffffffffffffffffffffffffff16908173ffffffffffffffffffffffffffffffffffffffff16815250508460200151816000815181106111d1576111d0611fec565b5b602002602001019073ffffffffffffffffffffffffffffffffffffffff16908173ffffffffffffffffffffffffffffffffffffffff168152505084602001518360008151811061122457611223611fec565b5b602002602001019073ffffffffffffffffffffffffffffffffffffffff16908173ffffffffffffffffffffffffffffffffffffffff168152505060006040518060a001604052803373ffffffffffffffffffffffffffffffffffffffff16815260200186815260200185815260200184815260200183815250905060036000876020015173ffffffffffffffffffffffffffffffffffffffff1673ffffffffffffffffffffffffffffffffffffffff16815260200190815260200160002081908060018154018082558091505060019003906000526020600020906005020160009091909190915060008201518160000160006101000a81548173ffffffffffffffffffffffffffffffffffffffff021916908373ffffffffffffffffffffffffffffffffffffffff160217905550602082015181600101908051906020019061136f92919061151a565b50604082015181600201908051906020019061138c92919061151a565b5060608201518160030190805190602001906113a992919061151a565b5060808201518160040190805190602001906113c692919061151a565b505050505050505050505050505050505050565b600080546113e790611f35565b80601f016020809104026020016040519081016040528092919081815260200182805461141390611f35565b80156114605780601f1061143557610100808354040283529160200191611460565b820191906000526020600020905b81548152906001019060200180831161144357829003601f168201915b505050505081565b600160009054906101000a900473ffffffffffffffffffffffffffffffffffffffff1681565b60045481565b8280546114a090611f35565b90600052602060002090601f0160209004810192826114c25760008555611509565b82601f106114db57805160ff1916838001178555611509565b82800160010185558215611509579182015b828111156115085782518255916020019190600101906114ed565b5b50905061151691906115a4565b5090565b828054828255906000526020600020908101928215611593579160200282015b828111156115925782518260006101000a81548173ffffffffffffffffffffffffffffffffffffffff021916908373ffffffffffffffffffffffffffffffffffffffff1602179055509160200191906001019061153a565b5b5090506115a091906115a4565b5090565b5b808211156115bd5760008160009055506001016115a5565b5090565b6000604051905090565b600080fd5b600080fd5b600073ffffffffffffffffffffffffffffffffffffffff82169050919050565b6000611600826115d5565b9050919050565b611610816115f5565b811461161b57600080fd5b50565b60008135905061162d81611607565b92915050565b6000819050919050565b61164681611633565b811461165157600080fd5b50565b6000813590506116638161163d565b92915050565b600080604083850312156116805761167f6115cb565b5b600061168e8582860161161e565b925050602061169f85828601611654565b9150509250929050565b6116b281611633565b82525050565b6116c1816115f5565b82525050565b600081519050919050565b600082825260208201905092915050565b60005b838110156117015780820151818401526020810190506116e6565b83811115611710576000848401525b50505050565b6000601f19601f8301169050919050565b6000611732826116c7565b61173c81856116d2565b935061174c8185602086016116e3565b61175581611716565b840191505092915050565b600060e082019050611775600083018a6116a9565b61178260208301896116b8565b81810360408301526117948188611727565b905081810360608301526117a88187611727565b90506117b760808301866116b8565b81810360a08301526117c98185611727565b905081810360c08301526117dd8184611727565b905098975050505050505050565b600060208201905061180060008301846116b8565b92915050565b60006020828403121561181c5761181b6115cb565b5b600061182a8482850161161e565b91505092915050565b600081519050919050565b600082825260208201905092915050565b6000819050602082019050919050565b611868816115f5565b82525050565b600081519050919050565b600082825260208201905092915050565b6000819050602082019050919050565b60006118a6838361185f565b60208301905092915050565b6000602082019050919050565b60006118ca8261186e565b6118d48185611879565b93506118df8361188a565b8060005b838110156119105781516118f7888261189a565b9750611902836118b2565b9250506001810190506118e3565b5085935050505092915050565b600060a083016000830151611935600086018261185f565b506020830151848203602086015261194d82826118bf565b9150506040830151848203604086015261196782826118bf565b9150506060830151848203606086015261198182826118bf565b9150506080830151848203608086015261199b82826118bf565b9150508091505092915050565b60006119b4838361191d565b905092915050565b6000602082019050919050565b60006119d482611833565b6119de818561183e565b9350836020820285016119f08561184f565b8060005b85811015611a2c5784840389528151611a0d85826119a8565b9450611a18836119bc565b925060208a019950506001810190506119f4565b50829750879550505050505092915050565b60006020820190508181036000830152611a5881846119c9565b905092915050565b600081519050919050565b600082825260208201905092915050565b6000819050602082019050919050565b611a9581611633565b82525050565b600082825260208201905092915050565b6000611ab7826116c7565b611ac18185611a9b565b9350611ad18185602086016116e3565b611ada81611716565b840191505092915050565b600061016083016000830151611afe6000860182611a8c565b506020830151611b11602086018261185f565b5060408301518482036040860152611b298282611aac565b91505060608301518482036060860152611b438282611aac565b9150506080830151611b58608086018261185f565b5060a083015184820360a0860152611b708282611aac565b91505060c083015184820360c0860152611b8a8282611aac565b91505060e083015184820360e0860152611ba482826118bf565b915050610100830151848203610100860152611bc082826118bf565b915050610120830151848203610120860152611bdc82826118bf565b915050610140830151848203610140860152611bf882826118bf565b9150508091505092915050565b6000611c118383611ae5565b905092915050565b6000602082019050919050565b6000611c3182611a60565b611c3b8185611a6b565b935083602082028501611c4d85611a7c565b8060005b85811015611c895784840389528151611c6a8582611c05565b9450611c7583611c19565b925060208a01995050600181019050611c51565b50829750879550505050505092915050565b60006020820190508181036000830152611cb58184611c26565b905092915050565b600080fd5b600080fd5b7f4e487b7100000000000000000000000000000000000000000000000000000000600052604160045260246000fd5b611cff82611716565b810181811067ffffffffffffffff82111715611d1e57611d1d611cc7565b5b80604052505050565b6000611d316115c1565b9050611d3d8282611cf6565b919050565b600067ffffffffffffffff821115611d5d57611d5c611cc7565b5b611d6682611716565b9050602081019050919050565b82818337600083830152505050565b6000611d95611d9084611d42565b611d27565b905082815260208101848484011115611db157611db0611cc2565b5b611dbc848285611d73565b509392505050565b600082601f830112611dd957611dd8611cbd565b5b8135611de9848260208601611d82565b91505092915050565b60008060008060808587031215611e0c57611e0b6115cb565b5b600085013567ffffffffffffffff811115611e2a57611e296115d0565b5b611e3687828801611dc4565b945050602085013567ffffffffffffffff811115611e5757611e566115d0565b5b611e6387828801611dc4565b935050604085013567ffffffffffffffff811115611e8457611e836115d0565b5b611e9087828801611dc4565b925050606085013567ffffffffffffffff811115611eb157611eb06115d0565b5b611ebd87828801611dc4565b91505092959194509250565b60006020820190508181036000830152611ee38184611727565b905092915050565b6000602082019050611f0060008301846116a9565b92915050565b7f4e487b7100000000000000000000000000000000000000000000000000000000600052602260045260246000fd5b60006002820490506001821680611f4d57607f821691505b60208210811415611f6157611f60611f06565b5b50919050565b7f4e487b7100000000000000000000000000000000000000000000000000000000600052601160045260246000fd5b6000611fa182611633565b9150611fac83611633565b9250827fffffffffffffffffffffffffffffffffffffffffffffffffffffffffffffffff03821115611fe157611fe0611f67565b5b828201905092915050565b7f4e487b7100000000000000000000000000000000000000000000000000000000600052603260045260246000fdfea26469706673582212209cd4024137b736c370f4f69dd2e6d82a4999fa7eb8117462270de9a470e4af9c64736f6c634300080a00336120646563656e7472616c6973656420706c6174666f726d7320746f207265636f72642070726f626c656d7320616e6420736f6c766520616e6420696d70726f7669736520736f6c7574696f6e73",
  "immutableReferences": {},
  "source": "// SPDX-License-Identifier: MIT\npragma solidity >= 0.5.0 < 0.9;\ncontract FreeIdeas {\n    \n    struct Idea {\n        uint id;\n        address ideaAddress;\n        string problemStatement;\n        string solutionPraposal;\n        address author;\n        string authorAlias;\n        string attachments;\n        address[] contributers;\n        address[] critisers;\n        address[] owners;\n        address[] versions;\n    }\n    struct Users {\n        address user;\n        address[] author;\n        address[] contributer;\n        address[] critiser;\n        address[] owner;\n    }\n    string public theCreatorOfIdeaUniverse;\n    address public creatorOriginAddress;\n    mapping (address => Idea[]) public ideas; //user => idea\n    mapping (address => Users[]) public users;// user => user\n    uint public ideaCounter;\n    constructor () {\n        // theCreatorOfIdeaUniverse = \"Meharaj137\";\n        creatorOriginAddress = msg.sender;\n        ideaCounter = 1;\n        mintIdea(\"a decentralised platforms to record problems and solve and improvise solutions\", \"a decentralised platforms to record problems and solve and improvise solutions\", \"mhrj137\", \"no attachmentnts\");\n    }\n    function mintIdea(string memory problemStatement, string memory solutionPraposal, string memory authorAlias, string memory attachments) public{\n        // require(bytes(problemStatement).length == 0 && bytes(solutionPraposal).length == 0, \"Problem statement and solution proposal must be provided\");\n        ideaCounter += 1;\n        address ideaAddress;\n        address[] memory contributers;\n        address[] memory critisers;\n        address[] memory owners;\n        address[] memory versions; \n        contributers[0] = msg.sender;\n        owners[0] = msg.sender;\n        versions[0] = ideaAddress;\n        Idea memory newIdea = Idea({\n            id: ideaCounter,\n            ideaAddress: ideaAddress,\n            problemStatement: problemStatement,\n            solutionPraposal: solutionPraposal,\n            author: msg.sender,\n            authorAlias: authorAlias,\n            attachments: attachments,\n            contributers: contributers,\n            critisers:  critisers,\n            owners: owners, \n            versions: versions\n        });\n        ideas[msg.sender].push(newIdea);\n\n        //specifying users roles for idea \n        address[] memory user_author;\n        address[] memory user_contributer;\n        address[] memory user_critiser;\n        address[] memory user_owner;\n        user_author[0] = newIdea.ideaAddress;\n        user_owner[0] = newIdea.ideaAddress;\n        user_contributer[0] = newIdea.ideaAddress;\n        Users memory userDetails = Users({\n            user: msg.sender,\n            author: user_author,\n            owner: user_owner,\n            contributer: user_contributer,\n            critiser: user_critiser\n        });\n        users[newIdea.ideaAddress].push(userDetails);\n       \n    }\n    function listIdeas(address owner) view public returns(Idea[] memory){\n        return ideas[owner];\n    }\n    function listUsers(address ideaAddress) view public returns(Users[] memory){\n        return users[ideaAddress];\n    }\n}",
  "sourcePath": "/Users/meharaj.moulasab/freeideas.nft/contracts/FreeIdeas.sol",
  "compiler": {
    "name": "solc",
    "version": "0.8.10+commit.fc410830.Emscripten.clang"
  },
  "schemaVersion": "3.4.4",
  "updatedAt": "2022-01-02T15:59:15.465Z",
  "devdoc": {
    "kind": "dev",
    "methods": {},
    "version": 1
  },
  "userdoc": {
    "kind": "user",
    "methods": {},
    "version": 1
  }
}